:020000040800F2
:1000000030100020CD050008A1020008A30200085E
:10001000A7020008AB020008AF02000800000000C1
:10002000000000000000000000000000B302000813
:10003000B502000800000000B7020008B90200087D
:10004000E7050008E7050008E7050008E7050008E0
:10005000E7050008E7050008E7050008E7050008D0
:10006000E7050008E7050008E7050008E7050008C0
:10007000E7050008E7050008E7050008E7050008B0
:10008000E7050008E7050008E7050008E7050008A0
:10009000E7050008E7050008E7050008E705000890
:1000A000E7050008E7050008E7050008E705000880
:1000B000E7050008E7050008E7050008E705000870
:1000C000E7050008E7050008E7050008E705000860
:1000D000E7050008E7050008E7050008E705000850
:1000E000E7050008E7050008E7050008E705000840
:1000F000E7050008E7050008E7050008E705000830
:10010000E7050008E7050008E7050008E70500081F
:10011000E7050008E7050008E7050008E70500080F
:10012000E7050008E7050008E7050008E7050008FF
:1001300000000000000000000000000000000000BF
:1001400000000000000000000000000000000000AF
:10015000E7050008E7050008E705000800000000C3
:10016000000000000000000000000000000000008F
:10017000000000000000000000000000000000007F
:10018000000000000000000000000000000000006F
:10019000000000000000000000000000000000005F
:1001A000000000000000000000000000000000004F
:1001B000000000000000000000000000000000003F
:1001C000000000000000000000000000000000002F
:1001D000000000000000000000000000000000001F
:1001E000000000000000000000000000000000000F
:1001F00000000000000000000000000000000000FF
:1002000000000000000000000000000000000000EE
:1002100000000000000000000000000000000000DE
:10022000DFF80CD000F006FE004800473502000859
:100230003010002000F048F900F030F92DE00421E2
:10024000164800F0E2FAC82000F07FF94FF4806110
:10025000124800F0DAFAC82000F077F94FF4006194
:100260000E4800F0D2FAC82000F06FF904210B48C4
:1002700000F0CDFAC82000F068F94FF4806107481B
:1002800000F0C5FAC82000F060F94FF4006103489F
:1002900000F0BDFAC82000F058F9D0E7000C01408A
:1002A000704700BFFEE700BFFEE700BFFEE700BFEC
:1002B000FEE7704770477047704700000CB500209C
:1002C000019000906C48006840F480306A490860F2
:1002D00000BF6948006800F4003000900198401C9D
:1002E0000190009818B90198B0F5706FF1D162488B
:1002F000006800F4003010B10120009001E00020FF
:1003000000900098012843D15C48006840F010003C
:100310005A4908600846006820F003000860084653
:10032000006840F002000860534840685249486045
:100330000846406848600846406840F4806048606D
:100340000846406820F47C1048600846406840F445
:10035000E81048600846006840F08070086000BF00
:100360004548006800F000700028F9D04248406815
:1003700020F00300404948600846406840F0020011
:10038000486000BF3C48406800F00C000828F9D1E4
:100390000CBD10B5FFF792FF10BD10B536480068D0
:1003A00040F001003449086008464068344908407C
:1003B0003149486008460068324908402E490860C3
:1003C0000846006820F4802008600846406820F451
:1003D000FE0048604FF41F008860FFF7DAFF4FF01F
:1003E00000602949086010BD10B5002100200022DE
:1003F000214B5B6803F00C0121B1042906D00829C8
:1004000028D107E0214B224C236027E01F4B204CD2
:10041000236023E0184B5B6803F47010164B5B6895
:1004200003F48032022303EB904022B9194B43437B
:10043000174C23600DE0104B5B6803F4003323B1CD
:10044000144B4343124C236003E0104B4343104CC6
:10045000236003E00D4B0E4C236000BF00BF064B32
:100460005B68C3F303130C4CE15C094B1B68CB4086
:10047000074C236010BD0000001002400020024025
:100480000000FFF8FFFFF6FE08ED00E000127A0022
:100490000000002000093D000400002008B50121F3
:1004A000082000F0E8FB40F60440ADF8000003200F
:1004B0008DF8020010208DF803006946014800F015
:1004C000F7F808BD000C014000B585B0684600F0A3
:1004D0005AFB6FF0040000F08EFC37490198B0FB26
:1004E000F1F0364908700846007800EB4001C1EB96
:1004F000C0104FF6FF7101EAC0003149088005B015
:1005000000BD01462D4A12784A434FF0E0235A615C
:1005100000229A611A46126942F001021A6100BF74
:100520004FF0E022106900F001021AB100F48032AD
:10053000002AF5D04FF0E022126922F001024FF0BC
:10054000E0231A6100229A61704701461C4A128812
:100550004A434FF0E0235A6100229A611A46126919
:1005600042F001021A6100BF4FF0E022106900F072
:1005700001021AB100F48032002AF5D04FF0E022D7
:10058000126922F001024FF0E0231A6100229A6101
:10059000704730B5044609E0002502E06420FFF70B
:1005A000D4FF2846691C8DB20A28F7DB201EA4F16F
:1005B00001018CB2F0D130BD00127A00140000208D
:1005C0001600002008488047084800470648804732
:1005D00006480047FEE7FEE7FEE7FEE7FEE7FEE728
:1005E000FEE7FEE7FEE7FEE79B03000821020008A6
:1005F00010B50446D648844208D10121042000F0F9
:1006000054FB0021042000F050FB46E0D148844216
:1006100008D10121082000F048FB0021082000F04B
:1006200044FB3AE0CC48844208D10121102000F07C
:100630003CFB0021102000F038FB2EE0C74884422C
:1006400008D10121202000F030FB0021202000F003
:100650002CFB22E0C248844208D10121402000F056
:1006600024FB0021402000F020FB16E0BD4884421E
:1006700008D10121802000F018FB0021802000F02B
:1006800014FB0AE0B848844207D10121801500F02C
:100690000CFB0021A01500F008FB10BD10B50121D6
:1006A000084600F002FB0021012000F0FEFA10BD18
:1006B0002DE9F041024600250026002000230024F9
:1006C000002791F803C00CF00F0591F803C00CF05F
:1006D000100CBCF1000F03D091F802C04CEA0505E4
:1006E00091F800C0BCF1000F31D0146800202BE05D
:1006F0004FF0010C0CFA00F3B1F800C00CEA03064D
:100700009E4220D183004FF00F0C0CFA03F7BC433C
:1007100005FA03FC4CEA040491F803C0BCF1280F6D
:1007200006D14FF0010C0CFA00FCC2F814C00AE02C
:1007300091F803C0BCF1480F05D14FF0010C0CFA41
:1007400000FCC2F810C0401C0828D1D31460B1F8D6
:1007500000C0BCF1FF0F34DD546800202EE000F132
:10076000080C4FF0010808FA0CF3B1F800C00CEACD
:1007700003069E4221D183004FF00F0C0CFA03F7C1
:10078000BC4305FA03FC4CEA040491F803C0BCF135
:10079000280F05D100F1080C08FA0CF8C2F81480F3
:1007A00091F803C0BCF1480F07D100F1080C4FF0DD
:1007B000010808FA0CF8C2F81080401C0828CED3B3
:1007C0005460BDE8F0814FF6FF7101800221817015
:1007D0000421C17070470246002093680B400BB1A2
:1007E000012000E0002070470146886880B2704711
:1007F00002460020D3680B400BB1012000E000202E
:1008000070470146C86880B2704701617047416116
:1008100070470AB1016100E041617047C1607047F3
:100820004FF480320A438261816182618269826908
:100830007047024600204D4B18684FF680731840F1
:1008400040EA02100843494B186070474849C861A4
:100850007047F0B50A46002300240021002500F06F
:100860000046B6F1004F02D1404EF16901E03F4E23
:100870007168C0F3034583B200F44016B6F5401F1B
:1008800008D121F07061394E766826F07066374FD6
:100890007E6012E000F48016B6F5801F06D10326B4
:1008A00006FA05F4A14341F0706106E0460D3601F9
:1008B00003FA06F6B14341F0706122B1460D3601EC
:1008C00003FA06F6314300F00046B6F1004F02D1BC
:1008D000264EF16101E0254E7160F0BD30B5002279
:1008E0008B071C0F0F2303FA04F2204B08338C10E4
:1008F00053F8243093431D4C08348D1044F82530B0
:1009000023468C1053F824308C07240F00FA04F48B
:100910002343164C08348D1044F8253030BD14495B
:10092000DC310860704719B14FF0A532426302E034
:100930004FF0FF3242637047026B0A430263704715
:10094000026B4FF480338B401A4302637047000000
:1009500000080140000C014000100140001401405B
:1009600000180140001C014000200140000001402F
:1009700000002042ED48006840F00100EB490860AB
:1009800008464068EA490840E84948600846006867
:10099000E8490840E54908600846006820F48020DE
:1009A00008600846406820F4FE0048604FF41F00CD
:1009B00088607047DD49096821F48031DB4A1160A5
:1009C0001146096821F480211160B0F5803F03D001
:1009D000B0F5802F0ED106E0D449096841F480318A
:1009E000D24A116007E0D149096841F4A021CF4AF9
:1009F000116000E000BF00BF704710B50146002243
:100A0000002300204A11012A02D1C84C236806E0C5
:100A1000022A02D1C54C236A01E0C44C636A01F08A
:100A20001F02012494401C400CB1012000E0002072
:100A300010BD38B5002000900024002500BF3120F3
:100A4000FFF7DBFF05460098401C00900098B0F5CA
:100A5000706F01D0002DF2D03120FFF7CEFF08B12A
:100A6000012400E00024204638BD01460020AF4AA2
:100A7000106820F0F80040EAC10010607047AE49ED
:100A80000860704702460020A84B586820F47C108C
:100A900042EA01031843A54B58607047A64908660F
:100AA000704701460020A14A506820F00300084327
:100AB000506070479D48406800F00C007047014648
:100AC00000209A4A506820F0F000084350607047B8
:100AD00001460020954A506820F4E06008435060C9
:100AE000704701460020914A506820F4605040EA67
:100AF000C1005060704729B18C4A527A02438B4B37
:100B00005A7204E0894A527A8243884B5A7270477B
:100B100086494968894A1140844A516011464968AA
:100B200001435160704701460020804A5068844A62
:100B3000104008437D4A5060704700217B4A2032B4
:100B400011707A4A82F82010012802D004280AD1B4
:100B500004E00121754A2032117005E00521734A35
:100B60002032117000E000BF00BF70477549086077
:100B700070476E49096A01436C4A116270477149B6
:100B800044390860704770B5002100220025002319
:100B9000664E766806F00C0121B1042905D00829BB
:100BA0002ED105E0684E06602DE0674E06602AE013
:100BB0005E4E766806F470125C4E766806F48035F8
:100BC0005A4E7668C6F300762EB10124260146EA15
:100BD0009246721C02E0022606EB92421DB95B4E61
:100BE000564306600BE0514E766806F400361EB19F
:100BF000564E5643066002E0534E5643066002E0EE
:100C0000514E066000BF00BF484E766806F0F00106
:100C100009094F4E735C0668DE404660434E7668B5
:100C200006F4E061090A4A4E735C4668DE4086605D
:100C30003E4E766806F46051C90A454E735C4668BC
:100C4000DE40C660394E766806F44041890B414E5D
:100C5000735CC668B6FBF3F6066170BD29B1334A12
:100C600052690243314B5A6104E0304A526982436F
:100C70002E4B5A61704729B12C4A926902432B4B83
:100C80009A6104E0294A92698243284B9A6170472D
:100C900029B1264AD2690243244BDA6104E0234A8F
:100CA000D2698243214BDA61704729B11F4AD26869
:100CB00002431E4BDA6004E01C4AD26882431B4B9D
:100CC000DA60704729B1194A12690243174B1A6159
:100CD00004E0164A12698243144B1A61704719499D
:100CE0004039086070471449C8647047072802DC1F
:100CF0000E49C87102E007210C4AD171811F0B4ACD
:100D0000116370470948406A40F0807007494862A3
:100D1000704701460020054A92680A400AB1012046
:100D200000E00020704701498872704700100240BF
:100D30000000FFF8FFFFF6FE00004242FFFF3F7F8A
:100D4000FF3FFF9F8004424200127A0000093D00ED
:100D5000180000202800002031490143314A116069
:100D6000704770B5002100230F22C47804B32D4CC6
:100D7000246804F4E064C4F5E064210AC1F10403CA
:100D8000CA40447804FA03F18478144021430901ED
:100D9000254C0678A155047804F01F050124AC40C9
:100DA00005786D11AD0005F1E025C5F8004109E0B9
:100DB000047804F01F050124AC401C4D0678761120
:100DC00045F8264070BD1A4A0A400243154B1B1FC6
:100DD0001A60704739B1134A121D12680243114B51
:100DE0001B1D1A6006E00F4A121D126882430D4B4C
:100DF0001B1D1A607047042808D14FF0E0210969D3
:100E000041F004014FF0E022116107E04FF0E021D2
:100E1000096921F004014FF0E022116170470000E0
:100E20000000FA050CED00E000E400E080E100E0E5
:100E300080FFFF1F064C074D06E0E06840F001030D
:100E400094E8070098471034AC42F6D3FFF7ECF96A
:100E5000780E0008980E000802E008C8121F08C1AA
:100E6000002AFAD170477047002001E001C1121F2B
:100E7000002AFBD170470000980E000800000020F7
:100E80002C000000580E0008C40E00082C000020A2
:100E900004100000680E000800A24A0400000000D0
:100EA000000000000102030406070809000000001A
:100EB0000000000001020304010203040607080900
:040EC000020406081A
:0400000508000221CC
:00000001FF
